:100000000C942A000C943F000C943F000C943F0089
:100010000C943F000C943F000C943F000C943F0064
:100020000C943F000C943F000C943F000C943F0054
:100030000C943F000C943F000C943F000C943F0044
:100040000C943F000C943F000C943F000C943F0034
:100050000C943F0011241FBECFE5D8E0DEBFCDBF1A
:1000600010E0A0E6B0E0E8EFF0E002C005900D92ED
:10007000AC36B107D9F70E9441000C947A000C9479
:100080000000CDB7DEB72A970FB6F894DEBF0FBEDB
:10009000CDBF1ABA8FE787BB8BB383608BBB8AE077
:1000A000E0E6F0E0DE01119601900D928A95E1F70D
:1000B0008FE388BB80E0C8990DC0893048F48F5F1A
:1000C000E1E0F0E0EC0FFD1FE80FF11D908198BB1F
:1000D000C89BFECFC999EFCF882349F08150E1E05A
:1000E000F0E0EC0FFD1FE80FF11D908198BBC99B5C
:0800F000FECFE1CFF894FFCF31
:0C00F8003F065B4F666D7D077F6F0000C8
:00000001FF
