:100000000C942A000C943F000C943F000C943F0089
:100010000C943F000C943F000C943F000C943F0064
:100020000C943F000C943F000C943F000C943F0054
:100030000C943F000C943F000C943F000C943F0044
:100040000C943F000C943F000C943F000C943F0034
:100050000C943F0011241FBECFE5D8E0DEBFCDBF1A
:1000600010E0A0E6B0E0E0EEF1E002C005900D92F5
:10007000AC36B107D9F70E9441000C94EE000C9405
:100080000000CDB7DEB72A970FB6F894DEBF0FBEDB
:10009000CDBF8CE08ABB8FE787BB8BB38F608BBBF8
:1000A0008AE0E0E6F0E0DE01119601900D928A957B
:1000B000E1F722E33AE0C8992EC02F5F243609F415
:1000C00020E0822F632F0E94E200E1E0F0E0EC0FDD
:1000D000FD1FE80FF11DA1E0B0E0AC0FBD1FA90F9F
:1000E000B11D17C0808188BBDA9883ED90E301973A
:1000F000F1F700C000008BB384608BBB9C9198BB70
:10010000877F8BBB83ED90E30197F1F700C0000080
:10011000DB9AC89BE7CFC9992DC0215008F423E68C
:10012000822F632F0E94E200E1E0F0E0EC0FFD1F60
:10013000E80FF11DA1E0B0E0AC0FBD1FA90FB11D8C
:1001400017C0808188BBDA9883ED90E30197F1F7BF
:1001500000C000008BB384608BBB9C9198BB877FF1
:100160008BBB83ED90E30197F1F700C00000DB9AB1
:10017000C99BE7CF822F632F0E94E200E1E0F0E00D
:10018000EC0FFD1FE80FF11D808188BBDA98E3EDCD
:10019000F0E33197F1F700C000008BB384608BBBB4
:1001A000E1E0F0E0EC0FFD1FE90FF11D908198BB3D
:1001B000877F8BBB83ED90E30197F1F700C00000D0
:1001C000DB9A79CF991B79E004C0991F961708F044
:1001D000961B881F7A95C9F780950895F894FFCFEC
:0C01E0003F065B4F666D7D077F6F0000DF
:00000001FF
