:100000000C942A000C9434000C9434000C943400AA
:100010000C9434000C9434000C9434000C94340090
:100020000C9434000C9434000C9434000C94340080
:100030000C9434000C9434000C9434000C94340070
:100040000C9434000C9434000C9434000C94340060
:100050000C94340011241FBECFE5D8E0DEBFCDBF25
:100060000E9436000C946C000C940000D09A30E092
:10007000A1E0B0E069E170E012C02BB3CD01032E26
:1000800002C0880F991F0A94E2F7282B2BBB88E83F
:1000900093E1FB013197F1F70197D9F73F5F3830D2
:1000A00064F340E050E02BB3CD01042E02C0880F72
:1000B000991F0A94E2F7809582238BBB88E893E12D
:1000C000FB013197F1F70197D9F74F5F5F4F483048
:0C00D000510549F730E0D1CFF894FFCF84
:00000001FF
