:100000000C942A000C9434000C9434000C943400AA
:100010000C9434000C9434000C9434000C94340090
:100020000C9434000C9434000C9434000C94340080
:100030000C9434000C9434000C9434000C94340070
:100040000C9434000C9434000C9434000C94340060
:100050000C94340011241FBECFE5D8E0DEBFCDBF25
:100060000E9436000C9450000C94000017BA83E0F4
:100070008ABB1BBA8FEF88BBB0990AC0D89AB199D6
:100080000BC0D99AB299F8CF8BB383608BBBF4CFF6
:10009000B29BF5CFD898F3CFB29BF4CFD998F2CFDB
:0400A000F894FFCF02
:00000001FF
